:1000000012C02CC02BC032C329C028C027C026C0B4
:1000100025C024C023C022C021C020C01FC01EC0D4
:100020001DC01CC01BC011241FBECFE5D4E0DEBF25
:10003000CDBF10E0A0E6B0E0E4EDFDE002C0059029
:100040000D92A637B107D9F710E0A6E7B0E001C0DE
:100050001D92A538B107E1F7C3D2BAC6D1CF8F92AE
:100060009F92AF92BF92CF92DF92EF92FF920F9347
:100070001F93CF93DF934C015801690142505040C8
:100080007C01E40EF51E00E010E0EA01219616C0A6
:10009000B501C6012AE030E040E050E063D6605D83
:1000A000F7016083B501C6012AE030E040E050E08E
:1000B00059D659016A010894E108F1080F5F1F4FF2
:1000C000CE01801B910B97FFE3CFC80DD91D18827D
:1000D000DF91CF911F910F91FF90EF90DF90CF9024
:1000E000BF90AF909F908F900895EF92FF920F93E3
:1000F0001F9321E0E22EF12C012D112D2AE030E09A
:1001000040E050E02FD6C901DA01BC01CD016115F4
:1001100071058105910531F00894E11CF11C011D68
:10012000111DECCFB701C8011F910F91FF90EF9007
:100130000895BC0120E030E040E050E004C02F5FB3
:100140003F4F4F4F5F4FFB01E20FF31F808188232A
:10015000B1F7B901CA0108952F923F924F925F9271
:100160006F927F928F929F92AF92BF92CF92DF92C7
:10017000EF92FF920F931F93DF93CF9300D00F92D4
:10018000CDB7DEB74C017A018B0139014DB65EB6B1
:10019000CB01BA01AADF5B016C010894A11CB11C60
:1001A000C11CD11C8DB79EB78A199B090FB6F89454
:1001B0009EBF0FBE8DBF2DB73EB72F5F3F4F322E74
:1001C000232EC901B601A5019801870148DFDE0190
:1001D0001196E0E6F0E083E001900D928150E1F7A6
:1001E00020E030E040E050E004C02F5F3F4F4F4F31
:1001F0005F4FF401E20FF31F80818823B1F7C40140
:10020000622F0BD3832D922D6A2D07D320E030E08F
:1002100040E050E004C02F5F3F4F4F4F5F4FF3016E
:10022000E20FF31F80818823B1F7C301622FF5D25B
:10023000CE01019662E0F1D20FB6F8945EBE0FBE19
:100240004DBE0F900F900F90CF91DF911F910F91A6
:10025000FF90EF90DF90CF90BF90AF909F908F90E6
:100260007F906F905F904F903F902F9008952F92C6
:100270003F924F925F926F927F928F929F92AF9236
:10028000BF92CF92DF92EF92FF920F931F93DF9373
:10029000CF93CDB7DEB74C017A018B0139012DB672
:1002A0003EB6CB01BA0121DF5B016C010894A11CB1
:1002B000B11CC11CD11C8DB79EB78A199B090FB602
:1002C000F8949EBF0FBE8DBF2DB73EB72F5F3F4F37
:1002D000522E432EC901B601A50198018701BFDE48
:1002E00020E030E040E050E004C02F5F3F4F4F4F30
:1002F0005F4FF401E20FF31F80818823B1F7C4013F
:10030000622F8BD2852D942D6A2D87D220E030E08C
:1003100040E050E004C02F5F3F4F4F4F5F4FF3016D
:10032000E20FF31F80818823B1F7C301622F75D2DA
:100330000FB6F8943EBE0FBE2DBECF91DF911F9138
:100340000F91FF90EF90DF90CF90BF90AF909F9074
:100350008F907F906F905F904F903F902F90089577
:10036000DF93CF9300D000D0CDB7DEB7CE0101969A
:1003700032D283E090E00F900F900F900F90CF91CA
:10038000DF91089582309105E1F08330910571F09D
:10039000019711F580917E0090917F000097E1F028
:1003A000019790937F0080937E0016C080917E001D
:1003B00090917F00009729F0019790937F008093A0
:1003C0007E008091780090917900009729F0019744
:1003D00090937900809378008091780060917E00FE
:1003E0006FD1089582309105F1F08330910579F055
:1003F000019729F580917E0090917F008F3F9105B4
:10040000F0F4019690937F0080937E0018C0809155
:100410007E0090917F008F3F910528F40196909384
:100420007F0080937E0080917800909179008F3FCB
:10043000910528F40196909379008093780080913B
:10044000780060917E003CD108950F931F93DF9355
:10045000CF9300D000D0CDB7DEB781E054D180E299
:1004600060E235D188EC68EC2BD18E010F5F1F4F15
:10047000C80193D129813A818B819C81821793078E
:1004800030F481E090E0AEDF82E090E005C082E0F1
:1004900090E0A8DF81E090E075DFEACF8536910536
:1004A00029F08636910509F051C01DC081E018D1B0
:1004B00080E060E005D184E690E02DD280E160E14B
:1004C00006D188EC68ECFCD088EE93E024D280E082
:1004D00060E0F6D084E690E01ED280E260E0F7D0E3
:1004E00088EC60E01CC082E0FBD080E060E0E8D0F7
:1004F00084E690E010D280E160E1E9D088EC68EC1D
:10050000DFD088EE93E007D280E060E0D9D084E6C7
:1005100090E001D280E060E2DAD080E068ECD0D0F8
:1005200088EE93E0F8D180E060E0CAD084E690E005
:10053000F2D180E260E2CBD088EC68ECC1D081E0FF
:1005400090E09093770080937600089580E0C8D083
:1005500080E260E2BCD08091760090917700892B98
:1005600051F088EC90E0909379008093780090931C
:100570007F0080937E0083E090E034DF109277006C
:1005800010927600089580D185E090E0C4D17CD1AE
:1005900090E0009719F424E630E007C008971CF0BB
:1005A00025E630E002C026E630E0C90108950F9349
:1005B0001F93CF93DF9300E010E0C0E0D0E0E3DFD3
:1005C000080F191F2196CA30D105C9F7C8016AE082
:1005D00070E0B5D3CB01DF91CF911F910F910895BA
:1005E000CF92DF92EF92FF920F931F93DF93CF93FF
:1005F000CDB7DEB763970FB6F894DEBF0FBECDBFA1
:100600009ED088EC90E0909379008093780090934E
:100610007F0080937E0080E290E090937D00809345
:100620007C0090937B0080937A0032E0E32EF12CE3
:10063000EC0EFD1E6E010894C11CD11CB8DF8C01AC
:10064000D701E3E6F0E082E101900D928150E1F7FD
:10065000809175008983A801662757FD6095762FE4
:10066000C701960179DDC80119DFE8CF1F920F920B
:100670000FB60F9211248F939F93AF93BF938091E6
:1006800080008F5F80938000809181009091820034
:10069000A0918300B09184000196A11DB11D8093AB
:1006A000810090938200A0938300B0938400BF9157
:1006B000AF919F918F910F900FBE0F901F90189543
:1006C00090E09BBD8ABD70E079BD68BD089592B38E
:1006D0009F7C982B92BB88B38F7C862B88BB089518
:1006E000882311F4C09803C0813019F4C09A9298FD
:1006F0000895833019F4C09A929A0895823011F4C3
:10070000C098929A089592B38295880F880F807C42
:100710009F7B982B92BB0895982F882311F4662312
:1007200049F0979884B3836084BB85B3836085BBAD
:10073000992309F4A998662309F4A898089589E1F2
:1007400085BD8EE683BD89B7806889BF1BB81AB89E
:1007500096E890BD8FEC89B98FE387BB84EF81BBAE
:1007600081EA8FBD82E08EBD96B99798969881E018
:1007700061E0D2DF80E060E0CFDF81E0B1DF82B313
:100780008F7C806282BB88B38F7C806288BB1BBCFD
:100790001ABC19BC18BC78940895FC0183E487B98D
:1007A000369A349BFECF349A34B125B1922F80E033
:1007B000830F911D9183808382E487B9369A349B9D
:1007C000FECF349A34B125B1922F80E0830F911D72
:1007D000938382830895FC0184B38C7F84BB979AB2
:1007E00081E487B9369A349BFECF349A34B125B16F
:1007F000922F80E0830F911D9183808380E487B9DD
:10080000369A349BFECF349A34B125B1922F80E0D2
:10081000830F911D93838283089528E02AB9FC01F8
:1008200005C05D9BFECF81918CB961506623C9F7ED
:100830005E9BFECF0895FC0180E18AB94115510508
:1008400011F490E01EC0DF0170E005C05F9B07C09F
:100850008CB18D937F5F7617B0F420E030E02F5F8E
:100860003F4FC90101978417950780F3421753073B
:1008700050F484E5808308955F9BFECF8CB1819313
:100880009F5F9617C8F308958B9A939A84E487B96B
:1008900010928000809180008A30E0F3369A349B79
:1008A000FECF349A34B125B19398722F60E0630F74
:1008B000711D80E090E052D19B01AC0160E070E0DE
:1008C00080E894E4B7D020E030E040E85FE34DD02A
:1008D00020E030E04CE752E4CFD120E030E040E0CF
:1008E0005FE344D00FD1DC01CB01089593988B983E
:1008F00085B7837F85BF8BB780688BBF08958BB723
:100900008F778BBF0895982F109280008091800080
:100910008917E0F30895AC0120E030E008C01092A0
:100920008000809180008834E0F32F5F3F4F2417D0
:100930003507A8F30895609181007091820080913D
:1009400083009091840020918000982F872F762F2C
:100950006627620F711D811D911D28E430E040E083
:1009600050E000D2CA01B90108955058BB27AA2708
:100970000ED048C139D130F03ED120F031F49F3F44
:1009800011F41EF42EC10EF4E095E7FB24C1E92F0B
:100990004AD180F3BA17620773078407950718F0E6
:1009A00071F49EF562C10EF4E0950B2EBA2FA02DC6
:1009B0000B01B90190010C01CA01A0011124FF270C
:1009C000591B99F0593F50F4503E68F11A16F04007
:1009D000A22F232F342F4427585FF3CF4695379506
:1009E0002795A795F0405395C9F77EF41F16BA0BCB
:1009F000620B730B840BBAF09150A1F0FF0FBB1F79
:100A0000661F771F881FC2F70EC0BA0F621F731FC1
:100A1000841F48F4879577956795B795F7959E3F1E
:100A200008F0B3CF9395880F08F09927EE0F9795AC
:100A3000879508950CD0E6C0DED040F0D5D030F0D8
:100A400021F45F3F19F0C7C0511110C1CAC0EBD0EB
:100A500098F39923C9F35523B1F3951B550BBB2785
:100A6000AA2762177307840738F09F5F5F4F220F32
:100A7000331F441FAA1FA9F333D00E2E3AF0E0E82B
:100A800030D091505040E695001CCAF729D0FE2F77
:100A900027D0660F771F881FBB1F26173707480709
:100AA000AB07B0E809F0BB0B802DBF01FF279358BF
:100AB0005F4F2AF09E3F510568F08DC0D7C05F3F61
:100AC000ECF3983EDCF3869577956795B795F795A7
:100AD0009F5FC9F7880F911D9695879597F908959F
:100AE000E1E0660F771F881FBB1F6217730784073B
:100AF000BA0720F0621B730B840BBA0BEE1F88F74A
:100B0000E095089598D088F09F5790F0B92F9927D5
:100B1000B751A0F0D1F0660F771F881F991F1AF008
:100B2000BA95C9F712C0B13081F09FD0B1E00895F5
:100B30009CC0672F782F8827B85F39F0B93FCCF376
:100B4000869577956795B395D9F73EF490958095FE
:100B5000709561957F4F8F4F9F4F0895E89409C01E
:100B600097FB3EF490958095709561957F4F8F4FE0
:100B70009F4F9923A9F0F92F96E9BB279395F695F6
:100B8000879577956795B795F111F8CFFAF4BB0F74
:100B900011F460FF1BC06F5F7F4F8F4F9F4F16C0D8
:100BA000882311F096E911C0772321F09EE8872F62
:100BB000762F05C0662371F096E8862F70E060E01E
:100BC0002AF09A95660F771F881FDAF7880F969597
:100BD000879597F9089597F99F6780E870E060E03E
:100BE00008959FEF80EC089500240A9416161706C6
:100BF00018060906089500240A941216130614060E
:100C000005060895092E0394000C11F4882352F070
:100C1000BB0F40F4BF2B11F460FF04C06F5F7F4F28
:100C20008F4F9F4F089557FD9058440F551F59F00F
:100C30005F3F71F04795880F97FB991F61F09F3FC9
:100C400079F087950895121613061406551FF2CFF2
:100C50004695F1DF08C0161617061806991FF1CF42
:100C600086957105610508940895E894BB27662769
:100C70007727CB0197F908950BD0C4CFB5DF28F0C3
:100C8000BADF18F0952309F0A6CFABCF1124EECF31
:100C9000CADFA0F3959FD1F3950F50E0551F629FD7
:100CA000F001729FBB27F00DB11D639FAA27F00DC5
:100CB000B11DAA1F649F6627B00DA11D661F829FEC
:100CC0002227B00DA11D621F739FB00DA11D621FD1
:100CD000839FA00D611D221F749F3327A00D611DEE
:100CE000231F849F600D211D822F762F6A2F1124D0
:100CF0009F5750408AF0E1F088234AF0EE0FFF1F23
:100D0000BB1F661F771F881F91505040A9F79E3F59
:100D1000510570F060CFAACF5F3FECF3983EDCF353
:100D2000869577956795B795F795E7959F5FC1F796
:100D3000FE2B880F911D9695879597F9089597FB3F
:100D4000092E07260AD077FD04D02ED006D0002029
:100D50001AF4709561957F4F0895F6F790958195F7
:100D60009F4F0895A1E21A2EAA1BBB1BFD010DC0C7
:100D7000AA1FBB1FEE1FFF1FA217B307E407F5074B
:100D800020F0A21BB30BE40BF50B661F771F881F27
:100D9000991F1A9469F760957095809590959B01BD
:100DA000AC01BD01CF010895AA1BBB1B51E107C0D7
:100DB000AA1FBB1FA617B70710F0A61BB70B881FEB
:100DC000991F5A95A9F780959095BC01CD0108957A
:040DD000F894FFCFC5
:100DD4000A0D004F62737461636C6520706F7369F0
:060DE40074696F6E00004F
:00000001FF
